:100000000C9471000C948E000C948E000C948E0055
:100010000C948E000C948E000C948E000C948E0028
:100020000C948E000C9451070C948E000C942007B5
:100030000C948E000C948E000C948E000C948E0008
:100040000C948E000C948E000C948E000C948E00F8
:100050000C948E0008000000BE922449123EABAA08
:10006000AA2ABECDCCCC4C3E00000080BEABAAAAD2
:10007000AA3E00000000BF000000803F000000001A
:1000800000084178D3BB4387D1133D190E3CC3BD53
:100090004282AD2B3E68EC8276BED98FE1A93E4C00
:1000A00080EFFFBE01C4FF7F3F0000000000076338
:1000B0004236B79BD8A71A39685618AEBAAB558CDA
:1000C0001D3CB7CC5763BD6DEDFD753EF617723123
:1000D000BF000000803F6364696E6F70737578586D
:1000E0005B0011241FBECFE5D4E0DEBFCDBF11E021
:1000F000A0E6B0E0ECE5F5E202C005900D92A63274
:10010000B107D9F722E0A6E2B1E001C01D92A937FC
:10011000B207E1F70E9453060C94AC120C94000055
:100120004F925F926F927F928F929F92AF92BF9207
:10013000CF92DF92EF92FF92CF93DF9300D000D067
:10014000CDB7DEB76B017C0129833A834B835C8397
:1001500020E030E040E450E40E94D6092B013C014D
:10016000A7019601C701B6010E9469092AE53FE689
:100170004CEF59E30E9469094B015C012FE633EB18
:1001800045E256EBC301B2010E9469099B01AC0133
:10019000C501B4010E9479074B015C0120E835E8F4
:1001A00040EE5CE3C701B6010E9469099B01AC0106
:1001B000C501B4010E9478072DE13AE040EB5FE30E
:1001C0000E9479076B017C0121EC3FE04CEF5AE380
:1001D00069817A818B819C810E94690920E238EFD4
:1001E00041E85DE30E9478079B01AC01C701B601BD
:1001F0000E9478070F900F900F900F90DF91CF9192
:10020000FF90EF90DF90CF90BF90AF909F908F9036
:100210007F906F905F904F9008950F931F93CF93AF
:10022000DF930E9486082091600030916100409128
:100230006200509163000E9469099B01AC0160E07B
:1002400070E088E492E40E94E50720E030E040E2BC
:1002500051E40E947807062F172FD82FC92F20E0CE
:1002600030E0A9010E941409181624F000E010E003
:10027000D0E0C0E0602F712F8D2F9C2FDF91CF91A8
:100280001F910F9108954F925F926F927F928F927C
:100290009F92AF92BF92CF92DF92EF92FF920F9315
:1002A0001F934B015C0129013A01C801B7010E946B
:1002B0000D016B017C01A3019201C501B4010E94F3
:1002C00090009B01AC01C701B6010E94E5071F9198
:1002D0000F91FF90EF90DF90CF90BF90AF909F90E5
:1002E0008F907F906F905F904F9008954F925F92A4
:1002F0006F927F92AF92BF92CF92DF92EF92FF9276
:100300000F931F93CF93DF9300D000D0CDB7DEB70C
:100310002B013C0129833A834B835C83C801B701DD
:10032000A6019501ED88FE880F89188D0E94430172
:100330002FE832E449E952E40E94E50729813A8135
:100340004B815C810E94D609A30192010E94690938
:100350000F900F900F900F90DF91CF911F910F9101
:10036000FF90EF90DF90CF90BF90AF907F906F9015
:100370005F904F900895AF92BF92CF92DF92EF922D
:10038000FF920F931F931F930F93FF92EF925901C8
:100390006A017B018C0122EB3DE947E550EC63E803
:1003A00070EC8AE092E40E9476010F900F900F901B
:1003B0000F901F910F91FF90EF90DF90CF90BF9023
:1003C000AF900895AF92BF92CF92DF92EF92FF92DB
:1003D0000F931F931F930F93FF92EF9259016A019E
:1003E0007B018C012FE135E84BE450EC6FE872E8BB
:1003F0008AE992E40E9476010F900F900F900F907F
:100400001F910F91FF90EF90DF90CF90BF90AF9032
:100410000895AF92BF92CF92DF92EF92FF920F9327
:100420001F931F930F93FF92EF9259016A017B0173
:100430008C0122E03BE247E350EC64EA70EF8CED84
:1004400092E40E9476010F900F900F900F9024EA93
:1004500030E946EC53E40E9479071F910F91FF9019
:10046000EF90DF90CF90BF90AF900895AF92BF9282
:10047000CF92DF92EF92FF920F931F931F930F93F0
:10048000FF92EF9259016A017B018C012FEC37EF4B
:100490004BE750EC65E87BE487E194E40E94760149
:1004A0000F900F900F900F901F910F91FF90EF9072
:1004B000DF90CF90BF90AF900895AF92BF92CF9250
:1004C000DF92EF92FF920F931F931F930F93FF9270
:1004D000EF9259016A017B018C0122EA35E44EE179
:1004E00050EC66E676E68CEC92E40E9476010F9082
:1004F0000F900F900F901F910F91FF90EF90DF9052
:10050000CF90BF90AF900895AF92BF92CF92DF92FD
:10051000EF92FF920F931F931F930F93FF92EF920F
:1005200059016A017B018C0121EE3AE74CE550EC60
:100530006AEB79EC83E392E40E9476010F900F90CE
:100540000F900F901F910F91FF90EF90DF90CF9041
:10055000BF90AF9008954F925F926F927F928F926B
:100560009F92AF92BF92EF92FF920F931F93CF9300
:10057000DF9300D000D000D0CDB7DEB79E838D834F
:100580005B0109831A832B833C83BA01550F880BC7
:10059000990B0E9488082B013C01B501BB0C880B0C
:1005A000990B0E9488084B015C01E980FA800B815D
:1005B0001C81A30192010E94BB010E945708ED819A
:1005C000FE8171836083A3019201C501B4010E9481
:1005D000E2010E945708ED81FE8173836283A301CB
:1005E0009201C501B4010E9436020E945708ED81B4
:1005F000FE8175836483A3019201C501B4010E9449
:1006000009020E945708ED81FE8177836683A3016A
:100610009201C501B4010E945D020E945708ED815C
:10062000FE8171876087A3019201C501B4010E9418
:1006300084020E945708ED81FE81738762872696A7
:100640000FB6F894DEBF0FBECDBFDF91CF911F91E3
:100650000F91FF90EF90BF90AF909F908F907F9001
:100660006F905F904F90089583E083BF83E882BFCF
:1006700081E089BF7894089510BC83E389B91BB8E1
:1006800088E98AB986E880BD789408955D9BFECF9D
:100690008CB90895EF92FF920F931F93CF93DF933E
:1006A0008C017C01C0E0D0E0F80101900020E9F766
:1006B0003197E01BF10BCE17DF073CF4F701819176
:1006C0007F010E9446032196EFCFDF91CF911F91CA
:1006D0000F91FF90EF9008953E9A87E886B90895AC
:1006E00080916400806487B9369A349BFECF84B1D0
:1006F00095B1089511B882E380B984E086BF08956A
:1007000094EA96BF06B607FEFDCF880F83B984E84A
:1007100086BF06B607FEFDCF442369F0FB01640FD8
:10072000711D94E8819183B996BF06B607FEFDCF8F
:10073000E617F707B9F784E986BF0E947A030895A0
:1007400094EA96BF06B607FEFDCF982F990F93B98E
:1007500094E896BF06B607FEFDCF63B994E896BF4E
:1007600006B607FEFDCF94EA96BF06B607FEFDCF9C
:10077000880F816083B984E886BF06B607FEFDCF87
:10078000822F90E00197823091057CF0FA0131963A
:10079000BC01640F751F94EC96BF06B607FEFDCF33
:1007A00083B18193E617F707B9F784E886BF06B6E9
:1007B00007FEFDCF83B1420F511DFA0131978083AF
:1007C00084E986BF0E947A030895982F92959F70BE
:1007D000990F292F220F220F920F8F70890F0895E2
:1007E0009DEC899F912D1124969596959695392F7C
:1007F000330F232F220F220F230F821B20E1929F02
:10080000800D11240895CF93DF931F92CDB7DEB7EB
:1008100021E0AE014F5F5F4F682F88E60E94A00382
:1008200089810F90DF91CF910895CF93DF9300D00E
:10083000CDB7DEB789836A8342E0BE016F5F7F4F29
:1008400088E60E9480030F900F90DF91CF9108956A
:100850001F93CF93DF93EC0180E00E9403048F7716
:100860000E94E503888381E00E9403040E94E5035F
:10087000898382E00E9403048F730E94E5038A83C8
:1008800083E00E9403040E94E5038B8384E00E94BE
:1008900003040E94E5038C8385E00E9403040E9408
:1008A000E5038D8380E10E940304182F86E00E94F7
:1008B00003040E94E50390E024E6129F800D911D41
:1008C00011249F838E83DF91CF911F91089580E043
:1008D0000E940304881F8827881F0895CF92DF9203
:1008E000EF92FF920F931F93CF93DF93F82E162F63
:1008F000D42FC22F0E9467048F290E94F003682F13
:1009000080E00E941504812F0E94F003682F81E08F
:100910000E9415048D2F8F730E94F003682F82E0D0
:100920000E9415048C2F0E94F003682F83E00E9420
:100930001504802F0E94F003682F84E00E941504A4
:100940008E2D0E94F003682F85E00E941504960109
:100950003695279536952795ABE7B4E10E942F0B86
:10096000EC01D695C7956C2F80E10E9415048C2D63
:1009700024E6C29F801911240E94F003682F86E0AC
:100980000E941504DF91CF911F910F91FF90EF907E
:10099000DF90CF900895CF92DF92EF920F93CF9395
:1009A000DF93CDB7DEB72C970FB6F894DEBF0FBE3E
:1009B000CDBF8091730290917402A0917502B091A5
:1009C00076024091A2015091A3016091A40170911F
:1009D000A501841B950BA60BB70B0297A105B105CA
:1009E00008F4D5C08091A601823008F0C4C0CFC001
:1009F000EBE0F2E001900020E9F7E851F24011F558
:100A000042E050E060E070E08FE092E00E943E0B38
:100A100062BB8FE092E09F938F9385E690E09F9377
:100A20008F9387EA91E09F938F930E945A0C87EAF5
:100A300091E00E944A030F900F900F900F900F903B
:100A40000F9017C065E770E08BE092E00E94430CC6
:100A5000892B79F48FEF82BB8EE0EBE7F0E0A7EA19
:100A6000B1E001900D928A95E1F787EA91E00E944A
:100A70004A03EBE0F2E001900020E9F73197AF0183
:100A80004B50524060E070E08BE092E00E943C0CE2
:100A90001092A6017CC045E050E069E870E08BE070
:100AA00092E00E944C0C892B09F046C0EBE0F2E08A
:100AB00001900020E9F7EF51F240F1F5CE010196E7
:100AC0009F938F9302969F938F9302969F938F93FA
:100AD00002969F938F9302969F938F9302969F9374
:100AE0008F938FE890E09F938F9380E192E09F93A4
:100AF0008F930E947C0CCB84DC84E9840F8121E0FD
:100B00004D816B8189810E946E04EBE0F2E00190DF
:100B10000020E9F73197AF014B50524060E070E0A0
:100B20008BE092E00E943C0C1092A6010FB6F89464
:100B3000DEBF0FBECDBF2BC081E1E2EAF0E0A7EA45
:100B4000B1E001900D928A95E1F787EA91E00E9469
:100B50004A03EBE0F2E001900020E9F73197AF01A2
:100B60004B50524060E070E08BE092E00E943C0C01
:100B70001092A6010CC044E050E063EB70E08BE003
:100B800092E00E944C0C892B09F432CF84CF2C9632
:100B90000FB6F894DEBF0FBECDBFDF91CF910F919E
:100BA000EF90DF90CF900895CF93811102C0C0E005
:100BB00001C0C0E880E00E9403048F77682F6C2B8F
:100BC00080E00E941504CF910895B89AC09A0895C4
:100BD0000F931F93CF93DF9300D000D01F92CDB718
:100BE000DEB78C01C0988FE99CE80197F1F700C04F
:100BF0000000C09AB89890E59A95F1F7B09B0EC0A6
:100C000086E0E8EBF0E0ABE0B2E001900D928A956F
:100C1000E1F78BE092E00E944A033BC0E5EDEA95E4
:100C2000F1F70000B0990EC086E0EEEBF0E0ABE02B
:100C3000B2E001900D928A95E1F78BE092E00E947C
:100C40004A0327C0F5EDFA95F1F70000FE01319651
:100C5000AE014A5F5F4F28E030E080E0B09BFECFFE
:100C600090E59A95F1F7B09B03C0880F816001C0B1
:100C7000880FB099FECF2150310981F781934E172B
:100C80005F0749F70E94E5058981F80180838B8120
:100C900081830F900F900F900F900F90DF91CF9165
:100CA0001F910F9108950E943C030E9434030E94FB
:100CB0006C030E94E5050E947A0380E00E94D4053F
:100CC0000F2EF7EECF2EF7E0DF2EF02D0F2EF7E0F0
:100CD000EF2EF02D0CE025E046E162E180E00E947D
:100CE0006E048CEF81BB12BA0F2EFCEFCF2EF02DCD
:100CF0000F2EF4ECEF2EF0E0FF2EF02D0F2EFCE384
:100D0000AF2EF1E0BF2EF02D0F2EF4E6DF2EF02DEA
:100D10000E94CB048091730290917402A09175029D
:100D2000B091760240916F02509170026091710211
:100D300070917202841B950BA60BB70B89389341F7
:100D4000A105B10528F38091730290917402A091DE
:100D50007502B091760280936F0290937002A09317
:100D60007102B093720282B38C2582BB0E94700321
:100D70009093A1018093A0018EE291E00E94E8058A
:100D800086E291E00E9428040091A0011091A10147
:100D900020E030E0CEE2D1E0488150E0698170E0AF
:100DA00080E391E00E94AB0288811F928F9389813A
:100DB0001F928F93E0E3F1E083858F9382858F9379
:100DC00081858F9380858F9387818F9386818F9381
:100DD00085818F9384818F9383818F9382818F9379
:100DE00081818F9380818F93E6E2F1E080811F9271
:100DF0008F9381811F928F9382811F928F93848121
:100E00001F928F9385811F928F9387818F93868105
:100E10008F93FF92EF92BF92AF920E945A0C8DB7C0
:100E20009EB780960FB6F8949EBF0FBE8DBFC501CA
:100E30000E944A03F5012D2D11922A95E9F768CFFA
:100E40001F920F920FB60F9211248F939F93AF931F
:100E5000BF93EF93FF938091A6019CB1E82FF0E040
:100E6000E55FFD4F90838F5F8093A60180917302B1
:100E700090917402A0917502B09176028093A201C4
:100E80009093A301A093A401B093A501FF91EF91CA
:100E9000BF91AF919F918F910F900FBE0F901F90B8
:100EA00018951F920F920FB60F9211248F939F9354
:100EB000AF93BF938091730290917402A0917502D9
:100EC000B09176020196A11DB11D8093730290939B
:100ED0007402A0937502B093760283E882BFBF913B
:100EE000AF919F918F910F900FBE0F901F9018950B
:100EF0005058BB27AA270E9490070C94DA080E943A
:100F0000CC0838F00E94D30820F039F49F3F19F440
:100F100026F40C94C9080EF4E095E7FB0C94C30882
:100F2000E92F0E94EB0858F3BA176207730784078A
:100F3000950720F079F4A6F50C940D090EF4E095D0
:100F40000B2EBA2FA02D0B01B90190010C01CA0183
:100F5000A0011124FF27591B99F0593F50F4503E2E
:100F600068F11A16F040A22F232F342F4427585F20
:100F7000F3CF469537952795A795F0405395C9F738
:100F80007EF41F16BA0B620B730B840BBAF09150F0
:100F9000A1F0FF0FBB1F661F771F881FC2F70EC08F
:100FA000BA0F621F731F841F48F487957795679562
:100FB000B795F7959E3F08F0B0CF9395880F08F04E
:100FC0009927EE0F9795879508950E94F9070C943D
:100FD000DA080E94D30858F00E94CC0840F029F4A7
:100FE0005F3F29F00C94C30851110C940E090C9426
:100FF000C9080E94EB0868F39923B1F3552391F3D4
:10100000951B550BBB27AA2762177307840738F077
:101010009F5F5F4F220F331F441FAA1FA9F335D0D4
:101020000E2E3AF0E0E832D091505040E695001C88
:10103000CAF72BD0FE2F29D0660F771F881FBB1F42
:10104000261737074807AB07B0E809F0BB0B802D20
:10105000BF01FF2793585F4F3AF09E3F510578F04C
:101060000C94C3080C940E095F3FE4F3983ED4F34C
:10107000869577956795B795F7959F5FC9F7880F20
:10108000911D9695879597F90895E1E0660F771F72
:10109000881FBB1F621773078407BA0720F0621B03
:1010A000730B840BBA0BEE1F88F7E09508950E942E
:1010B000F30888F09F5798F0B92F9927B751B0F0EF
:1010C000E1F0660F771F881F991F1AF0BA95C9F7CC
:1010D00014C0B13091F00E940D09B1E008950C9454
:1010E0000D09672F782F8827B85F39F0B93FCCF307
:1010F000869577956795B395D9F73EF49095809549
:10110000709561957F4F8F4F9F4F0895E89409C068
:1011100097FB3EF490958095709561957F4F8F4F2A
:101120009F4F9923A9F0F92F96E9BB279395F69540
:10113000879577956795B795F111F8CFFAF4BB0FBE
:1011400011F460FF1BC06F5F7F4F8F4F9F4F16C022
:10115000882311F096E911C0772321F09EE8872FAC
:10116000762F05C0662371F096E8862F70E060E068
:101170002AF09A95660F771F881FDAF7880F9695E1
:10118000879597F9089597F99F6780E870E060E088
:1011900008959FEF80EC089500240A941616170610
:1011A00018060906089500240A9412161306140658
:1011B00005060895092E0394000C11F4882352F0BB
:1011C000BB0F40F4BF2B11F460FF04C06F5F7F4F73
:1011D0008F4F9F4F089557FD9058440F551F59F05A
:1011E0005F3F71F04795880F97FB991F61F09F3F14
:1011F00079F087950895121613061406551FF2CF3D
:101200004695F1DF08C0161617061806991FF1CF8C
:1012100086957105610508940895E894BB276627B3
:101220007727CB0197F908950E94600A08F48FEFA1
:10123000089516F00C94840A0C94C90868940C94D0
:10124000C3080E94F308A8F39923C1F3AEF3DF9318
:10125000CF931F930F93FF92C92FDD2788232AF086
:101260002197660F771F881FDAF720E030E040E80B
:101270005FEB9FE3883920F0803E38F021968F772E
:101280000E947907E4E5F0E004C00E947907E1E8F4
:10129000F0E00E94920A8B01BE01EC01FB2E6F5719
:1012A00071097595771F880B990B0E94880828E1B2
:1012B00032E741E35FE30E947C09AF2D9801AE0164
:1012C000FF900F911F91CF91DF910E9490070C9496
:1012D000DA080E947C090C94DA080E94CC0838F0E5
:1012E0000E94D30820F0952311F00C94C3080C94AD
:1012F000C90811240C940E090E94EB0870F3959F05
:10130000C1F3950F50E0551F629FF001729FBB27FC
:10131000F00DB11D639FAA27F00DB11DAA1F649F98
:101320006627B00DA11D661F829F2227B00DA11D4B
:10133000621F739FB00DA11D621F839FA00D611DD1
:10134000221F749F3327A00D611D231F849F600DF2
:10135000211D822F762F6A2F11249F5750409AF01B
:10136000F1F088234AF0EE0FFF1FBB1F661F771FA7
:10137000881F91505040A9F79E3F510580F00C9472
:10138000C3080C940E095F3FE4F3983ED4F38695AE
:1013900077956795B795F795E7959F5FC1F7FE2B12
:1013A000880F911D9695879597F90895FA01EE0F8C
:1013B000FF1F309621053105A1F16115710561F41A
:1013C0008038BFE39B0749F168949038810561F04C
:1013D0008038BFEF9B0741F099234AF5FF3FE105B5
:1013E0003105210519F1E8940894E795D901AA235C
:1013F00029F4AB2FBE2FF85FD0F310C0FF5F70F45D
:10140000A695E0F7F73950F019F0FF3A38F49F77D6
:101410009F930DD00F9007FC9058089546F00C94C0
:10142000C90860E070E080E89FE308954FE79F7788
:101430005F934F933F932F930E9421092F913F91E8
:101440004F915F910E9469090C942E0A29F416F0BD
:101450000C94C3080C940D090C94C9080E94F3085D
:10146000A8F39638A0F707F80F92E8942BE33AEA2E
:1014700048EB5FE70E947F090F920F920F924DB7E2
:101480005EB70F920E94FB0AEEEAF0E00E94920A19
:101490004F915F91EF91FF91E595EE1FFF1F49F08E
:1014A000FE57E0684427EE0F441FFA95E1F7419597
:1014B000550B0E94C50A0F9007FE0C94B90A0895B7
:1014C000990F0008550FAA0BE0E8FEEF1616170655
:1014D000E807F907C0F012161306E407F50798F0BD
:1014E000621B730B840B950B39F40A2661F0232BD6
:1014F000242B252B21F408950A2609F4A140A69552
:101500008FEF811D811D08959F3F31F0915020F490
:10151000879577956795B795880F911D96958795CF
:1015200097F90895DF93CF931F930F93FF92EF9254
:10153000DF927B018C01689406C0DA2EEF010E94D5
:101540007C09FE01E894A59125913591459155912D
:10155000A6F3EF010E949007FE019701A801DA941B
:1015600069F7DF90EF90FF900F911F91CF91DF917E
:1015700008959B01AC0160E070E080E89FE30C946B
:10158000E5070C94C3080C94840A0E94F308D8F36E
:101590009923C9F3940F511DA3F39150504094F037
:1015A00059F0882332F0660F771F881F9150504002
:1015B000C1F79E3F51052CF7880F911D9695879591
:1015C00097F908955F3FACF0983E9CF0BB27869555
:1015D00077956795B79508F4B1609395C1F7BB0F00
:1015E00058F711F460FFE8CF6F5F7F4F8F4F9F4F29
:1015F000E3CF0C940E09FA01DC01AA0FBB1F9B017B
:10160000AC01BF5728F4222733274427507820C045
:10161000B75190F4AB2F0024469537952795011CC0
:10162000A395D2F3002071F0220F331F441FB3950E
:10163000DAF30ED00C94780761307105A0E88A07C0
:10164000B94630F49B01AC0166277727882790784C
:10165000309621F020833183428353830895A29FE3
:10166000B001B39FC001A39F700D811D1124911D76
:10167000B29F700D811D1124911D0895A0E0B0E06E
:10168000E4E4FBE00C9476125C016B017A016115D5
:10169000710519F0FB0191838083E114F10429F0B5
:1016A000C7010297839708F0C9C0E5012196F501AB
:1016B0001081812F90E00E94330C892B11F05E0184
:1016C000F4CF1D3229F42196F501118101E007C004
:1016D0001B3221F4E5012296F501118100E0E114AD
:1016E000F104B1F0F0E1EF16F10429F4B0C010E319
:1016F000E114F10401F12AE0E216F104B1F180E114
:10170000E816F10471F0E8E0EE16F104F1F413C00C
:10171000103341F588818F7D883549F719812296EC
:101720000260F0E1EF2EF12C88248A94982CA82CEA
:10173000AFE0BA2E20C078E0E72EF12C88248A94FE
:10174000982CA82CEFE1BE2E16C06FEF7FEFCB01D7
:1017500097010F2C000C440B550B0E9448124901B5
:101760005A0109C08AE0E82EF12C69E9862E982CEE
:10177000A82C69E1B62E40E060E070E0CB012701C3
:101780000F2C000C66087708FE0150ED352E310E47
:1017900029E0231570F42FEB210F2A3118F439ECCE
:1017A000332E06C02FE9210F2A3130F529EA322ED7
:1017B000310E232D30E02E153F05F4F44F3FC9F0D4
:1017C00086169706A806B90688F0A30192010E9422
:1017D0003812232D30E040E050E0620F731F841F69
:1017E000951F621773078407950710F44FEF01C028
:1017F00041E021961081C8CFC114D10451F0442397
:1018000011F0219703C001FF04C02297F601D18394
:10181000C08300FF07C090958095709561957F4FBC
:101820008F4F9F4F4F3F79F482E290E09093780280
:10183000809377023FEF2FEF9FEF0DC040E030E045
:1018400020E090E008C0462F372F282F04C0103327
:1018500009F067CF5FCF642F732F822FCDB7DEB72C
:10186000E1E10C94921291110C942311803219F041
:1018700089508550C8F70895DC0101C06D9341502F
:101880005040E0F70895FB01DC018D910190801933
:101890000110D9F3990B0895FB01DC014150504030
:1018A00030F08D910190801919F40020B9F7881B50
:1018B000990B0895AEE0B0E0E0E6FCE00C948312F2
:1018C0000D891E8986E08C831A8309838FEF9FE739
:1018D0009E838D83AE01475E5F4F6F89788DCE0109
:1018E00001960E94950CEF81F885E00FF11F1082A0
:1018F0002E96E4E00C949F12AEE0B0E0E2E8FCE04B
:101900000C94851285E08C838B899C899A838983CA
:10191000AE01495E5F4F6D897E89CE0101960E94BE
:1019200012102E96E2E00C94A112ABE0B0E0EBE9CD
:10193000FCE00C9475126C017B018A01FC0117829A
:101940001682838181FFCCC1CE0101963C01F60154
:101950009381F70193FD859193FF81917F01882306
:1019600009F4BAC1853239F493FD859193FF8191D1
:101970007F01853229F4B60190E00E948511E7CFFE
:10198000912C212C312CFFE1F315D8F08B3279F01A
:1019900038F4803279F08332A1F4232D20611DC008
:1019A0008D3261F0803369F4232D216016C0832DC0
:1019B0008260382EE32DE4603E2E2AC0F32DF860BD
:1019C0001DC037FC2DC020ED280F2A3040F08E328C
:1019D000B9F436FC81C1232D2064322E19C036FEA5
:1019E00006C08AE0989E200D1124922E11C0EAE0D4
:1019F0002E9E200D1124222EF32DF0623F2E08C0C2
:101A00008C3621F4832D8068382E02C0883641F44C
:101A1000F70193FD859193FF81917F018111B3CFF0
:101A2000982F9F7D9554933028F40C5F1F4F9FE3B0
:101A300099830DC0833631F0833771F0833509F017
:101A400059C021C0F801808189830E5F1F4F88240F
:101A50008394912C530113C02801F2E04F0E511CC6
:101A6000F801A080B18036FE03C0692D70E002C08D
:101A70006FEF7FEFC5010E943C114C018201F32DF5
:101A8000FF773F2E16C0280122E0420E511CF801BC
:101A9000A080B18036FE03C0692D70E002C06FEFF8
:101AA0007FEFC5010E9431114C01F32DF0683F2EEC
:101AB000820133FC1BC0822D90E088169906B0F499
:101AC000B60180E290E00E9485112A94F4CFF501DE
:101AD00037FC859137FE81915F01B60190E00E944D
:101AE000851121102A9421E0821A91088114910411
:101AF00071F7E8C0843611F0893641F5F80137FEF8
:101B000007C060817181828193810C5F1F4F08C083
:101B100060817181072E000C880B990B0E5F1F4F9F
:101B2000F32DFF763F2E97FF09C090958095709515
:101B300061957F4F8F4F9F4FF0683F2E2AE030E036
:101B4000A3010E94DA11882E861845C0853731F42A
:101B5000232D2F7EB22E2AE030E025C0932D997FD1
:101B6000B92E8F36C1F018F4883579F0B5C08037BA
:101B700019F0883721F0B0C0E92FE061BE2EB4FE25
:101B80000DC0FB2DF460BF2E09C034FE0AC0292F02
:101B90002660B22E06C028E030E005C020E130E02B
:101BA00002C020E132E0F801B7FE07C06081718118
:101BB000828193810C5F1F4F06C06081718180E03C
:101BC00090E00E5F1F4FA3010E94DA11882E861845
:101BD000FB2DFF773F2E36FE0DC0232D2E7FA22E2C
:101BE000891458F434FE0BC032FC09C0832D8E7E5C
:101BF000A82E05C0B82CA32C03C0B82C01C0B92C4A
:101C0000A4FE0FC0FE01E80DF11D8081803321F498
:101C10009A2D997EA92E09C0A2FE06C0B394B39452
:101C200004C08A2D867809F0B394A3FC11C0A0FEED
:101C300006C0B21488F4280C922C9B180EC0B21463
:101C400060F4B60180E290E00E948511B394F7CF72
:101C5000B21418F42B1802C0982C212CA4FE10C02A
:101C6000B60180E390E00E948511A2FE17C0A1FC9E
:101C700003C088E790E002C088E590E0B6010CC0A0
:101C80008A2D867859F0A1FE02C08BE201C080E265
:101C9000A7FC8DE2B60190E00E948511891438F40A
:101CA000B60180E390E00E9485119A94F7CF8A9460
:101CB000F301E80DF11D8081B60190E00E948511CD
:101CC0008110F5CF222009F442CEB60180E290E0E7
:101CD0000E9485112A94F6CFF6018681978102C071
:101CE0008FEF9FEF2B96E2E10C94911220FD09C03B
:101CF000FC0123FD05C022FF02C073836283518370
:101D00004083089544FD17C046FD17C0AB01BC01D8
:101D1000DA01FB01AA0FBB1FEE1FFF1F1094D1F7C2
:101D20004A0F5B1F6E1F7F1FCB01BA01660F771F23
:101D3000881F991F09C033E001C034E0660F771F88
:101D4000881F991F3150D1F7620F711D811D911DA0
:101D500008950F931F93CF93DF938C01C8010E94C6
:101D60004711EC0197FD08C00E94330C892BB1F795
:101D7000B801CE010E94C111CE01DF91CF911F9118
:101D80000F9108958F929F92AF92BF92EF92FF9220
:101D90000F931F93CF93DF938C01D62F7A01B22E2E
:101DA0000E9447119C0133272B32310531F02D322F
:101DB000310561F48B2D8068B82ED15011F480E08C
:101DC00068C0C8010E94471197FDF9CFCB2DCD7F88
:101DD0002B2D207309F58033F9F4AA24AA94AD0EB3
:101DE00009F443C0C8010E94471197FD3EC09C0101
:101DF0002F7D33272835310549F4C264D250A9F12B
:101E0000C8010E94471197FF07C02FC0B6FE02C04D
:101E1000C26001C0C261DA2D812C912C540120EDE9
:101E2000280F283080F0C4FF04C0B8010E94C111FF
:101E300019C02A3040F0C6FFF8CF2F7D3FEE320F99
:101E4000363098F727504C2FC501B4010E94820EFE
:101E50004B015C01C260D15059F0C8010E9447118A
:101E600097FFDDCFC1FD04C0AACF812C912C540176
:101E7000C7FF08C0B094A09490948094811C911CDA
:101E8000A11CB11C2C2FB501A401C7010E94760E24
:101E900081E0DF91CF911F910F91FF90EF90BF9064
:101EA000AF909F908F900895A0E2B0E0EAE5FFE048
:101EB0000C9478125C01962E7A01F9018E010F5F65
:101EC0001F4F680180E2D8011D928A95E9F7D5017C
:101ED00013968C9080E090E0612C712C30E061E0F2
:101EE00070E083FC259183FE21918F01522E2111F8
:101EF00003C080E090E092C02E3511F4009751F1BC
:101F0000432F50E0481759073CF42D3559F12D3235
:101F100019F4772009F103C0772009F46AC0452D30
:101F2000469546954695D601A40FB11D452D47709F
:101F30008B0102C0000F111F4A95E2F7A8015C91C6
:101F4000452B4C93651459F0561410F45394E7CF75
:101F50005A94E5CF31E004C07724739401C0712C0A
:101F60000196BFCF772019F08E8180628E83311168
:101F700003C08824839417C0F6019E012F5D3F4F54
:101F80008081809581932E173F07D1F7F2CFE1141E
:101F9000F10429F0D7018C93F70131967F019A94CF
:101FA000812C9920F9F0C5010E94471197FD18C0B6
:101FB000FC01FF2723E0F595E7952A95E1F7EC0D65
:101FC000FD1D208130E0AC014770552702C03595DA
:101FD00027954A95E2F720FDDACFB5010E94C1119D
:101FE000811087CFE114F10411F0D7011C92C801D0
:101FF00015C0422F469546954695D601A40FB11DB2
:10200000422F47708B0102C0000F111F4A95E2F763
:10201000A8015C91452B4C93622EA2CFA096EFE0D5
:102020000C949412A0E0B0E0E8E1F0E10C94781296
:102030006C01EB015A01FC0117821682512CF6014A
:10204000E380FE01E3FC8591E3FE8191182FEF010F
:10205000882309F4EEC090E00E94330C892B21F014
:10206000C6010E94A90EEBCF153241F4FE01E3FC3C
:102070001591E3FE1191EF01153281F4C6010E9422
:10208000471197FDD4C0412F50E09C0133272417FE
:102090003507A9F2B6010E94C111CBC01A3239F43A
:1020A000E3FC1591E3FE1191EF0101E001C000E0B6
:1020B000F12C20ED210F2A3080F402606F2D70E0AA
:1020C00080E090E040E20E94820EF62EFE01E3FCEA
:1020D0001591E3FE1191EF01ECCF01FF03C0F11068
:1020E00003C0A7C0FF24FA94183619F01C3651F02B
:1020F00010C0FE01E3FC1591E3FE1191EF011836CB
:1021000041F408600460FE01E3FC1591E3FE1191C7
:10211000EF01112309F48DC0612F70E086ED90E08E
:102120000E942611892B09F484C000FD07C0F50127
:1021300080809180C50102965C0102C0812C912CA7
:102140001E3651F4F6014681578160E070E0202F81
:10215000C4010E94760E73CF1336A9F401FD02C0AC
:10216000FF24F394C6010E94471197FD60C08114BB
:10217000910429F0F4018083C40101964C01FA9482
:10218000F110F0CF50C01B3559F49E01A4016F2D02
:10219000C6010E94540FEC01892B09F044C03EC0D7
:1021A000C6010E94A90E97FD42C01F3661F128F4B6
:1021B000143639F1193651F128C0133771F015373B
:1021C00001F123C08114910429F0F4016082C4015B
:1021D00001964C01FA94FF2071F0C6010E9447114C
:1021E0003C0197FD08C00E94330C892B59F3B601BE
:1021F000C3010E94C11181149104A9F0F40110825D
:1022000012C0006203C0006101C00064202FA4015D
:102210006F2DC6010E94C20E811105C0F601838197
:10222000807329F406C000FD0ACF539408CF5520CF
:1022300019F0852D90E002C08FEF9FEFCDB7DEB78C
:10224000EFE00C949412992788270895FC010590DB
:10225000061621F00020D9F7C00108953197CF016B
:102260000895FC010590615070400110D8F78095E9
:1022700090958E0F9F1F0895FC0161507040019052
:102280000110D8F7809590958E0F9F1F0895CF93DA
:10229000DF93EC012B8120FF33C026FF0AC02F7B88
:1022A0002B838E819F8101969F838E838A8190E00C
:1022B00029C022FF0FC0E881F9818081082E000C1F
:1022C000990B009719F420622B831AC03196F98379
:1022D000E8830EC0EA85FB85099597FF09C02B812D
:1022E000019611F080E201C080E1822B8B8308C04F
:1022F0002E813F812F5F3F4F3F832E83992702C05E
:102300008FEF9FEFDF91CF9108950F931F93CF939E
:10231000DF93FB01238121FD03C08FEF9FEF2CC0D2
:1023200022FF16C046815781248135814217530709
:1023300044F4A081B1819D012F5F3F4F3183208301
:102340008C93268137812F5F3F4F3783268314C0BC
:102350008B01EC01FB010084F185E02D0995892BAF
:10236000E1F6D80116968D919C91179701961796D4
:102370009C938E931697CE01DF91CF911F910F9171
:102380000895FB01238120FF12C026FD10C08F3F5E
:102390003FEF930761F082832F7D206423832681A2
:1023A00037812150310937832683992708958FEF8C
:1023B0009FEF0895FA01AA27283051F1203181F1C9
:1023C000E8946F936E7F6E5F7F4F8F4F9F4FAF4F3D
:1023D000B1E03ED0B4E03CD0670F781F891F9A1F50
:1023E000A11D680F791F8A1F911DA11D6A0F711D04
:1023F000811D911DA11D20D009F468943F912AE010
:10240000269F11243019305D3193DEF6CF010895F7
:10241000462F4770405D4193B3E00FD0C9F7F6CF28
:10242000462F4F70405D4A3318F0495D31FD4052F0
:10243000419302D0A9F7EACFB4E0A6959795879586
:1024400077956795BA95C9F7009761057105089565
:102450009B01AC010A2E0694579547953795279511
:10246000BA95C9F7620F731F841F951FA01D0895A9
:10247000DB018F939F930E946A12BF91AF91A29F3D
:10248000800D911DA39F900DB29F900D1124089572
:10249000A1E21A2EAA1BBB1BFD010DC0AA1FBB1F68
:1024A000EE1FFF1FA217B307E407F50720F0A21BDA
:1024B000B30BE40BF50B661F771F881F991F1A9447
:1024C00069F760957095809590959B01AC01BD0171
:1024D000CF0108950E942F0BA59F900DB49F900DE2
:1024E000A49F800D911D112408952F923F924F9229
:1024F0005F926F927F928F929F92AF92BF92CF9294
:10250000DF92EF92FF920F931F93CF93DF93CDB79C
:10251000DEB7CA1BDB0B0FB6F894DEBF0FBECDBF14
:1025200009942A88398848885F846E847D848C84E5
:102530009B84AA84B984C884DF80EE80FD800C81EE
:102540001B81AA81B981CE0FD11D0FB6F894DEBFD1
:0C2550000FBECDBFED010895F894FFCF41
:10255C000A28A03B0753657420504F525444203D29
:10256C002025730A006C65643A31005475726E2034
:10257C006F6666206C65640A0074696D653A0025A7
:10258C003464253264253264253264253264253264
:10259C006400496E76616C696420436F6D6D616E89
:1025AC00640A006C65643A00457272310A00457227
:1025BC0072320A002530346425303264253032649E
:1025CC00253032642530326425303264094163652C
:1025DC00746F6E653A256409416C636F686F6C3A71
:1025EC00256409434F3A256409434F323A2564095F
:1025FC00416D6D6F6E6961633A256409546F6C753A
:10260C00656E653A25640954656D3A25640948750B
:06261C006D3A2564000088
:00000001FF
